{
  "contractName": "MyBlock",
  "abi": [
    {
      "inputs": [],
      "payable": false,
      "stateMutability": "nonpayable",
      "type": "constructor"
    },
    {
      "constant": true,
      "inputs": [],
      "name": "n_posts",
      "outputs": [
        {
          "internalType": "uint256",
          "name": "",
          "type": "uint256"
        }
      ],
      "payable": false,
      "stateMutability": "view",
      "type": "function"
    },
    {
      "constant": false,
      "inputs": [
        {
          "internalType": "string",
          "name": "_ipfsHash",
          "type": "string"
        },
        {
          "internalType": "string",
          "name": "_description",
          "type": "string"
        },
        {
          "internalType": "uint256",
          "name": "_fee",
          "type": "uint256"
        }
      ],
      "name": "pushPost",
      "outputs": [],
      "payable": false,
      "stateMutability": "nonpayable",
      "type": "function"
    },
    {
      "constant": false,
      "inputs": [
        {
          "internalType": "uint256",
          "name": "postID",
          "type": "uint256"
        }
      ],
      "name": "viewPost",
      "outputs": [
        {
          "internalType": "string",
          "name": "",
          "type": "string"
        }
      ],
      "payable": true,
      "stateMutability": "payable",
      "type": "function"
    },
    {
      "constant": false,
      "inputs": [
        {
          "internalType": "uint256",
          "name": "postID",
          "type": "uint256"
        },
        {
          "internalType": "bool",
          "name": "like",
          "type": "bool"
        }
      ],
      "name": "ratePost",
      "outputs": [],
      "payable": false,
      "stateMutability": "nonpayable",
      "type": "function"
    },
    {
      "constant": true,
      "inputs": [
        {
          "internalType": "uint256",
          "name": "postID",
          "type": "uint256"
        }
      ],
      "name": "getPostDetails",
      "outputs": [
        {
          "components": [
            {
              "internalType": "uint256",
              "name": "id",
              "type": "uint256"
            },
            {
              "internalType": "string",
              "name": "description",
              "type": "string"
            },
            {
              "internalType": "uint256",
              "name": "fee",
              "type": "uint256"
            },
            {
              "internalType": "uint256",
              "name": "likes",
              "type": "uint256"
            },
            {
              "internalType": "uint256",
              "name": "dislikes",
              "type": "uint256"
            }
          ],
          "internalType": "struct MyBlock.PostDetails",
          "name": "",
          "type": "tuple"
        }
      ],
      "payable": false,
      "stateMutability": "view",
      "type": "function"
    },
    {
      "constant": true,
      "inputs": [
        {
          "internalType": "string",
          "name": "_search",
          "type": "string"
        },
        {
          "internalType": "uint256",
          "name": "start",
          "type": "uint256"
        }
      ],
      "name": "searchPost",
      "outputs": [
        {
          "internalType": "uint256",
          "name": "",
          "type": "uint256"
        }
      ],
      "payable": false,
      "stateMutability": "view",
      "type": "function"
    }
  ],
  "bytecode": "0x608060405234801561001057600080fd5b506001600281905550611127806100286000396000f3fe6080604052600436106100555760003560e01c806303c0f7d21461005a57806348cb27181461008a57806357453019146100b35780635d4dda7c146100de57806392f137751461011b5780639fc226f414610144575b600080fd5b610074600480360361006f9190810190610c4c565b610181565b6040516100819190610edd565b60405180910390f35b34801561009657600080fd5b506100b160048036036100ac9190810190610b79565b61044a565b005b3480156100bf57600080fd5b506100c8610584565b6040516100d59190610fa1565b60405180910390f35b3480156100ea57600080fd5b5061010560048036036101009190810190610bf8565b61058a565b6040516101129190610fa1565b60405180910390f35b34801561012757600080fd5b50610142600480360361013d9190810190610c75565b610699565b005b34801561015057600080fd5b5061016b60048036036101669190810190610c4c565b6108b1565b6040516101789190610f7f565b60405180910390f35b606060008210158015610195575060025482105b6101d4576040517f08c379a00000000000000000000000000000000000000000000000000000000081526004016101cb90610eff565b60405180910390fd5b60006001600084815260200190815260200160002090508060070160003373ffffffffffffffffffffffffffffffffffffffff1673ffffffffffffffffffffffffffffffffffffffff16815260200190815260200160002060009054906101000a900460ff168061029457508060020160009054906101000a900473ffffffffffffffffffffffffffffffffffffffff1673ffffffffffffffffffffffffffffffffffffffff163373ffffffffffffffffffffffffffffffffffffffff16145b6103a55780600401543410156102df576040517f08c379a00000000000000000000000000000000000000000000000000000000081526004016102d690610f3f565b60405180910390fd5b8060020160009054906101000a900473ffffffffffffffffffffffffffffffffffffffff1673ffffffffffffffffffffffffffffffffffffffff166108fc349081150290604051600060405180830381858888f19350505050158015610349573d6000803e3d6000fd5b5060018160070160003373ffffffffffffffffffffffffffffffffffffffff1673ffffffffffffffffffffffffffffffffffffffff16815260200190815260200160002060006101000a81548160ff0219169083151502179055505b806001018054600181600116156101000203166002900480601f01602080910402602001604051908101604052809291908181526020018280546001816001161561010002031660029004801561043d5780601f106104125761010080835404028352916020019161043d565b820191906000526020600020905b81548152906001019060200180831161042057829003601f168201915b5050505050915050919050565b60006001600060025481526020019081526020016000209050600254816000018190555083816001019080519060200190610486929190610a27565b50338160020160006101000a81548173ffffffffffffffffffffffffffffffffffffffff021916908373ffffffffffffffffffffffffffffffffffffffff160217905550828160030190805190602001906104e2929190610a27565b5081816004018190555060008160050181905550600081600601819055506000803373ffffffffffffffffffffffffffffffffffffffff1673ffffffffffffffffffffffffffffffffffffffff1681526020019081526020016000208160000154908060018154018082558091505090600182039060005260206000200160009091929091909150555060026000815480929190600101919050555050505050565b60025481565b600080610596846109fc565b90505b60025483101561068d578061065b600160008681526020019081526020016000206003018054600181600116156101000203166002900480601f0160208091040260200160405190810160405280929190818152602001828054600181600116156101000203166002900480156106515780601f1061062657610100808354040283529160200191610651565b820191906000526020600020905b81548152906001019060200180831161063457829003601f168201915b50505050506109fc565b1415610680576001600084815260200190815260200160002060000154915050610693565b8280600101935050610599565b60009150505b92915050565b600082101580156106ab575060025482105b6106ea576040517f08c379a00000000000000000000000000000000000000000000000000000000081526004016106e190610eff565b60405180910390fd5b60006001600084815260200190815260200160002090508060070160003373ffffffffffffffffffffffffffffffffffffffff1673ffffffffffffffffffffffffffffffffffffffff16815260200190815260200160002060009054906101000a900460ff1661078f576040517f08c379a000000000000000000000000000000000000000000000000000000000815260040161078690610f1f565b60405180910390fd5b8060080160003373ffffffffffffffffffffffffffffffffffffffff1673ffffffffffffffffffffffffffffffffffffffff16815260200190815260200160002060009054906101000a900460ff161561081e576040517f08c379a000000000000000000000000000000000000000000000000000000000815260040161081590610f5f565b60405180910390fd5b811561083d578060050160008154809291906001019190505550610852565b80600601600081548092919060010191905055505b60018160080160003373ffffffffffffffffffffffffffffffffffffffff1673ffffffffffffffffffffffffffffffffffffffff16815260200190815260200160002060006101000a81548160ff021916908315150217905550505050565b6108b9610aa7565b600082101580156108cb575060025482105b61090a576040517f08c379a000000000000000000000000000000000000000000000000000000000815260040161090190610eff565b60405180910390fd5b60006001600084815260200190815260200160002090506040518060a0016040528082600001548152602001826003018054600181600116156101000203166002900480601f0160208091040260200160405190810160405280929190818152602001828054600181600116156101000203166002900480156109ce5780601f106109a3576101008083540402835291602001916109ce565b820191906000526020600020905b8154815290600101906020018083116109b157829003601f168201915b5050505050815260200182600401548152602001826005015481526020018260060154815250915050919050565b60006060829050600081511415610a19576000801b915050610a22565b60208301519150505b919050565b828054600181600116156101000203166002900490600052602060002090601f016020900481019282601f10610a6857805160ff1916838001178555610a96565b82800160010185558215610a96579182015b82811115610a95578251825591602001919060010190610a7a565b5b509050610aa39190610ad6565b5090565b6040518060a0016040528060008152602001606081526020016000815260200160008152602001600081525090565b610af891905b80821115610af4576000816000905550600101610adc565b5090565b90565b600081359050610b0a816110b6565b92915050565b600082601f830112610b2157600080fd5b8135610b34610b2f82610fe9565b610fbc565b91508082526020830160208301858383011115610b5057600080fd5b610b5b838284611063565b50505092915050565b600081359050610b73816110cd565b92915050565b600080600060608486031215610b8e57600080fd5b600084013567ffffffffffffffff811115610ba857600080fd5b610bb486828701610b10565b935050602084013567ffffffffffffffff811115610bd157600080fd5b610bdd86828701610b10565b9250506040610bee86828701610b64565b9150509250925092565b60008060408385031215610c0b57600080fd5b600083013567ffffffffffffffff811115610c2557600080fd5b610c3185828601610b10565b9250506020610c4285828601610b64565b9150509250929050565b600060208284031215610c5e57600080fd5b6000610c6c84828501610b64565b91505092915050565b60008060408385031215610c8857600080fd5b6000610c9685828601610b64565b9250506020610ca785828601610afb565b9150509250929050565b6000610cbc82611020565b610cc6818561103c565b9350610cd6818560208601611072565b610cdf816110a5565b840191505092915050565b6000610cf582611015565b610cff818561102b565b9350610d0f818560208601611072565b610d18816110a5565b840191505092915050565b6000610d30600f8361103c565b91507f494e56414c494420504f535420494400000000000000000000000000000000006000830152602082019050919050565b6000610d7060128361103c565b91507f504f5354204e4f542050555243484153454400000000000000000000000000006000830152602082019050919050565b6000610db060238361103c565b91507f4e65656420746f20706179206174206c65617374206d696e696d756d206f662060008301527f66656500000000000000000000000000000000000000000000000000000000006020830152604082019050919050565b6000610e1660128361103c565b91507f504f535420414c524541445920524154454400000000000000000000000000006000830152602082019050919050565b600060a083016000830151610e616000860182610ebf565b5060208301518482036020860152610e798282610cea565b9150506040830151610e8e6040860182610ebf565b506060830151610ea16060860182610ebf565b506080830151610eb46080860182610ebf565b508091505092915050565b610ec881611059565b82525050565b610ed781611059565b82525050565b60006020820190508181036000830152610ef78184610cb1565b905092915050565b60006020820190508181036000830152610f1881610d23565b9050919050565b60006020820190508181036000830152610f3881610d63565b9050919050565b60006020820190508181036000830152610f5881610da3565b9050919050565b60006020820190508181036000830152610f7881610e09565b9050919050565b60006020820190508181036000830152610f998184610e49565b905092915050565b6000602082019050610fb66000830184610ece565b92915050565b6000604051905081810181811067ffffffffffffffff82111715610fdf57600080fd5b8060405250919050565b600067ffffffffffffffff82111561100057600080fd5b601f19601f8301169050602081019050919050565b600081519050919050565b600081519050919050565b600082825260208201905092915050565b600082825260208201905092915050565b60008115159050919050565b6000819050919050565b82818337600083830152505050565b60005b83811015611090578082015181840152602081019050611075565b8381111561109f576000848401525b50505050565b6000601f19601f8301169050919050565b6110bf8161104d565b81146110ca57600080fd5b50565b6110d681611059565b81146110e157600080fd5b5056fea365627a7a723158203fe45101d57b2802620e1f42efe9d1e5d8d7ec15f15642e196fe979d327307b86c6578706572696d656e74616cf564736f6c63430005100040",
  "source": "pragma solidity >=0.5.0 <0.8.0;\r\npragma experimental ABIEncoderV2;\r\n\r\ncontract MyBlock {\r\n    struct Post {\r\n        uint256 id;\r\n        string ipfsHash;\r\n        address payable owner;\r\n        string description;\r\n        uint256 fee;\r\n        uint256 likes;\r\n        uint256 dislikes;\r\n        mapping(address => bool) payed;\r\n        mapping(address => bool) liked;\r\n    }\r\n\r\n    struct PostDetails {\r\n        uint256 id;\r\n        string description;\r\n        uint256 fee;\r\n        uint256 likes;\r\n        uint256 dislikes;\r\n    }\r\n\r\n    struct Profile{\r\n        uint256[] posted;\r\n        uint256[] owned;\r\n    }\r\n\r\n    mapping(address => uint256[]) private users;\r\n    mapping(uint256 => Post) private posts;\r\n    uint256 public n_posts;\r\n\r\n    constructor() public{\r\n        n_posts = 1;\r\n    }\r\n\r\n    /**\r\n     * @dev push a post to MyBlock\r\n     * @param _ipfsHash - hash reference of image\r\n     * @param _description - string description of post\r\n     * @param _fee - int cost to access post\r\n     */\r\n    function pushPost(string memory _ipfsHash, string memory _description, uint256 _fee)\r\n        public\r\n    {\r\n        \r\n        Post storage newPost = posts[n_posts];\r\n        newPost.id = n_posts;\r\n        newPost.ipfsHash = _ipfsHash;\r\n        newPost.owner = msg.sender;\r\n        newPost.description = _description;\r\n        newPost.fee = _fee;\r\n        newPost.likes = 0;\r\n        newPost.dislikes = 0;\r\n        \r\n        users[msg.sender].push(newPost.id);\r\n        n_posts++;\r\n    }\r\n\r\n    /**\r\n     * @dev buy a post and pay owner\r\n     * @param postID - ID of post to buy\r\n     *\r\n     */\r\n    function viewPost(uint256 postID) public payable returns (string memory) {\r\n        require(postID >= 0 && postID < n_posts, \"INVALID POST ID\");\r\n        Post storage p = posts[postID];\r\n\r\n        if (!(p.payed[msg.sender] || msg.sender == p.owner)) {\r\n            require(msg.value >= p.fee, \"Need to pay at least minimum of fee\");\r\n            p.owner.transfer(msg.value);\r\n            p.payed[msg.sender] = true;\r\n        }\r\n\r\n        return p.ipfsHash;\r\n    }\r\n\r\n    /**\r\n     * @dev rate a post positively or negatively\r\n     * @param postID - ID of post to like or dislike\r\n     * @param like - determines if post is to be liked or disliked\r\n     */\r\n    function ratePost(uint256 postID, bool like) public {\r\n        require(postID >= 0 && postID < n_posts, \"INVALID POST ID\");\r\n        Post storage p = posts[postID];\r\n        require(p.payed[msg.sender], \"POST NOT PURCHASED\");\r\n        require(!p.liked[msg.sender], \"POST ALREADY RATED\");\r\n        if (like) {\r\n            p.likes++;\r\n        } else {\r\n            p.dislikes++;\r\n        }\r\n        p.liked[msg.sender] = true;\r\n    }\r\n\r\n    /**\r\n     * @dev return details of a post\r\n     * @param postID - ID of post for which details are returned\r\n     * @return PostDetails */\r\n    function getPostDetails(uint256 postID)\r\n        public\r\n        view\r\n        returns (PostDetails memory)\r\n    {\r\n        require(postID >= 0 && postID < n_posts, \"INVALID POST ID\");\r\n        Post storage p = posts[postID];\r\n\r\n        return\r\n            PostDetails({\r\n                id: p.id,\r\n                description: p.description,\r\n                fee: p.fee,\r\n                likes: p.likes,\r\n                dislikes: p.dislikes\r\n            });\r\n    }\r\n\r\n    /**\r\n     * @dev searches for post based on description\r\n     * @param _search - description to search for\r\n     */\r\n    function searchPost(string memory _search, uint256 start)\r\n        public view\r\n        returns (uint256)\r\n    {\r\n        bytes32 search = stringToBytes32(_search);\r\n        \r\n        while(start < n_posts){\r\n            if (stringToBytes32(posts[start].description)==search){\r\n                return(posts[start].id);\r\n            }\r\n            start++;\r\n        }\r\n        return 0;\r\n    }\r\n\r\n    /**\r\n     * @dev utility method to conver string to bytes32\r\n     * @param source string to convert\r\n     * @return result\r\n     * Notes:\r\n     *      source - https://ethereum.stackexchange.com/questions/9142/how-to-convert-a-string-to-bytes32\r\n     */\r\n    function stringToBytes32(string memory source)\r\n        private\r\n        pure\r\n        returns (bytes32 result)\r\n    {\r\n        bytes memory tempEmptyStringTest = bytes(source);\r\n        if (tempEmptyStringTest.length == 0) {\r\n            return 0x0;\r\n        }\r\n\r\n        assembly {\r\n            result := mload(add(source, 32))\r\n        }\r\n    }\r\n}\r\n",
  "sourcePath": "D:/Junior Fall/Blockchain/FinalProject/BlockChain-FinalProject/myBlock/contracts/MyBlock.sol",
  "compiler": {
    "name": "solc",
    "version": "0.5.16+commit.9c3226ce.Emscripten.clang"
  },
  "schemaVersion": "3.3.1",
  "updatedAt": "2020-11-17T20:33:28.522Z",
  "networkType": "ethereum",
  "devdoc": {
    "methods": {
      "getPostDetails(uint256)": {
        "details": "return details of a post",
        "params": {
          "postID": "- ID of post for which details are returned"
        },
        "return": "PostDetails "
      },
      "pushPost(string,string,uint256)": {
        "details": "push a post to MyBlock",
        "params": {
          "_description": "- string description of post",
          "_fee": "- int cost to access post",
          "_ipfsHash": "- hash reference of image"
        }
      },
      "ratePost(uint256,bool)": {
        "details": "rate a post positively or negatively",
        "params": {
          "like": "- determines if post is to be liked or disliked",
          "postID": "- ID of post to like or dislike"
        }
      },
      "searchPost(string,uint256)": {
        "details": "searches for post based on description",
        "params": {
          "_search": "- description to search for"
        }
      },
      "viewPost(uint256)": {
        "details": "buy a post and pay owner",
        "params": {
          "postID": "- ID of post to buy      "
        }
      }
    }
  },
  "userdoc": {
    "methods": {}
  }
}