{
  "contractName": "MyBlock",
  "abi": [
    {
      "inputs": [],
      "payable": false,
      "stateMutability": "nonpayable",
      "type": "constructor"
    },
    {
      "constant": true,
      "inputs": [],
      "name": "n_posts",
      "outputs": [
        {
          "internalType": "uint256",
          "name": "",
          "type": "uint256"
        }
      ],
      "payable": false,
      "stateMutability": "view",
      "type": "function"
    },
    {
      "constant": false,
      "inputs": [
        {
          "internalType": "string",
          "name": "_ipfsHash",
          "type": "string"
        },
        {
          "internalType": "string",
          "name": "_title",
          "type": "string"
        },
        {
          "internalType": "string",
          "name": "_description",
          "type": "string"
        },
        {
          "internalType": "uint256",
          "name": "_fee",
          "type": "uint256"
        }
      ],
      "name": "pushPost",
      "outputs": [],
      "payable": false,
      "stateMutability": "nonpayable",
      "type": "function"
    },
    {
      "constant": false,
      "inputs": [
        {
          "internalType": "uint256",
          "name": "postID",
          "type": "uint256"
        }
      ],
      "name": "buyPost",
      "outputs": [],
      "payable": true,
      "stateMutability": "payable",
      "type": "function"
    },
    {
      "constant": true,
      "inputs": [
        {
          "internalType": "uint256",
          "name": "postID",
          "type": "uint256"
        }
      ],
      "name": "viewPost",
      "outputs": [
        {
          "internalType": "string",
          "name": "",
          "type": "string"
        }
      ],
      "payable": false,
      "stateMutability": "view",
      "type": "function"
    },
    {
      "constant": false,
      "inputs": [
        {
          "internalType": "uint256",
          "name": "postID",
          "type": "uint256"
        },
        {
          "internalType": "bool",
          "name": "like",
          "type": "bool"
        }
      ],
      "name": "ratePost",
      "outputs": [],
      "payable": false,
      "stateMutability": "nonpayable",
      "type": "function"
    },
    {
      "constant": true,
      "inputs": [
        {
          "internalType": "uint256",
          "name": "postID",
          "type": "uint256"
        }
      ],
      "name": "getPostDetails",
      "outputs": [
        {
          "components": [
            {
              "internalType": "uint256",
              "name": "id",
              "type": "uint256"
            },
            {
              "internalType": "string",
              "name": "title",
              "type": "string"
            },
            {
              "internalType": "string",
              "name": "description",
              "type": "string"
            },
            {
              "internalType": "uint256",
              "name": "fee",
              "type": "uint256"
            },
            {
              "internalType": "uint256",
              "name": "likes",
              "type": "uint256"
            },
            {
              "internalType": "uint256",
              "name": "dislikes",
              "type": "uint256"
            }
          ],
          "internalType": "struct MyBlock.PostDetails",
          "name": "",
          "type": "tuple"
        }
      ],
      "payable": false,
      "stateMutability": "view",
      "type": "function"
    },
    {
      "constant": true,
      "inputs": [
        {
          "internalType": "string",
          "name": "search",
          "type": "string"
        },
        {
          "internalType": "uint256",
          "name": "start",
          "type": "uint256"
        }
      ],
      "name": "searchPost",
      "outputs": [
        {
          "internalType": "uint256",
          "name": "",
          "type": "uint256"
        }
      ],
      "payable": false,
      "stateMutability": "view",
      "type": "function"
    },
    {
      "constant": true,
      "inputs": [],
      "name": "getUserOwned",
      "outputs": [
        {
          "internalType": "uint256[]",
          "name": "",
          "type": "uint256[]"
        }
      ],
      "payable": false,
      "stateMutability": "view",
      "type": "function"
    },
    {
      "constant": true,
      "inputs": [],
      "name": "getUserPosted",
      "outputs": [
        {
          "internalType": "uint256[]",
          "name": "",
          "type": "uint256[]"
        }
      ],
      "payable": false,
      "stateMutability": "view",
      "type": "function"
    },
    {
      "constant": true,
      "inputs": [
        {
          "internalType": "string",
          "name": "_sub",
          "type": "string"
        },
        {
          "internalType": "string",
          "name": "_seq",
          "type": "string"
        }
      ],
      "name": "isSub",
      "outputs": [
        {
          "internalType": "bool",
          "name": "",
          "type": "bool"
        }
      ],
      "payable": false,
      "stateMutability": "pure",
      "type": "function"
    }
  ],
  "bytecode": "0x608060405234801561001057600080fd5b506001600281905550611a8d806100286000396000f3fe6080604052600436106100915760003560e01c806392f137751161005957806392f13775146101825780639fc226f4146101ab578063c393bffa146101e8578063c59fe62014610225578063d26c75301461024e57610091565b806303c0f7d2146100965780632882df7c146100d35780632fa67338146100fe578063574530191461011a5780635d4dda7c14610145575b600080fd5b3480156100a257600080fd5b506100bd60048036036100b89190810190611403565b610279565b6040516100ca91906117ca565b60405180910390f35b3480156100df57600080fd5b506100e8610480565b6040516100f5919061178d565b60405180910390f35b61011860048036036101139190810190611403565b61051d565b005b34801561012657600080fd5b5061012f61080a565b60405161013c91906118ce565b60405180910390f35b34801561015157600080fd5b5061016c600480360361016791908101906113af565b610810565b60405161017991906118ce565b60405180910390f35b34801561018e57600080fd5b506101a960048036036101a4919081019061142c565b6109cf565b005b3480156101b757600080fd5b506101d260048036036101cd9190810190611403565b610c8b565b6040516101df91906118ac565b60405180910390f35b3480156101f457600080fd5b5061020f600480360361020a9190810190611298565b610e78565b60405161021c91906117af565b60405180910390f35b34801561023157600080fd5b5061024c60048036036102479190810190611304565b610f4b565b005b34801561025a57600080fd5b506102636110a2565b604051610270919061178d565b60405180910390f35b606060008211801561028c575060025482105b6102cb576040517f08c379a00000000000000000000000000000000000000000000000000000000081526004016102c29061182c565b60405180910390fd5b60006001600084815260200190815260200160002090506000803373ffffffffffffffffffffffffffffffffffffffff1673ffffffffffffffffffffffffffffffffffffffff168152602001908152602001600020600201600084815260200190815260200160002060009054906101000a900460ff168061039c57508060020160009054906101000a900473ffffffffffffffffffffffffffffffffffffffff1673ffffffffffffffffffffffffffffffffffffffff163373ffffffffffffffffffffffffffffffffffffffff16145b6103db576040517f08c379a00000000000000000000000000000000000000000000000000000000081526004016103d29061180c565b60405180910390fd5b806001018054600181600116156101000203166002900480601f0160208091040260200160405190810160405280929190818152602001828054600181600116156101000203166002900480156104735780601f1061044857610100808354040283529160200191610473565b820191906000526020600020905b81548152906001019060200180831161045657829003601f168201915b5050505050915050919050565b606060008060003373ffffffffffffffffffffffffffffffffffffffff1673ffffffffffffffffffffffffffffffffffffffff16815260200190815260200160002090508060000180548060200260200160405190810160405280929190818152602001828054801561051257602002820191906000526020600020905b8154815260200190600101908083116104fe575b505050505091505090565b60008111801561052e575060025481105b61056d576040517f08c379a00000000000000000000000000000000000000000000000000000000081526004016105649061182c565b60405180910390fd5b60006001600083815260200190815260200160002090506000803373ffffffffffffffffffffffffffffffffffffffff1673ffffffffffffffffffffffffffffffffffffffff168152602001908152602001600020600201600083815260200190815260200160002060009054906101000a900460ff168061063e57508060020160009054906101000a900473ffffffffffffffffffffffffffffffffffffffff1673ffffffffffffffffffffffffffffffffffffffff163373ffffffffffffffffffffffffffffffffffffffff16145b1561067e576040517f08c379a00000000000000000000000000000000000000000000000000000000081526004016106759061184c565b60405180910390fd5b80600501543410156106c5576040517f08c379a00000000000000000000000000000000000000000000000000000000081526004016106bc906117ec565b60405180910390fd5b8060020160009054906101000a900473ffffffffffffffffffffffffffffffffffffffff1673ffffffffffffffffffffffffffffffffffffffff166108fc349081150290604051600060405180830381858888f1935050505015801561072f573d6000803e3d6000fd5b5060016000803373ffffffffffffffffffffffffffffffffffffffff1673ffffffffffffffffffffffffffffffffffffffff168152602001908152602001600020600201600084815260200190815260200160002060006101000a81548160ff0219169083151502179055506000803373ffffffffffffffffffffffffffffffffffffffff1673ffffffffffffffffffffffffffffffffffffffff1681526020019081526020016000206001018290806001815401808255809150509060018203906000526020600020016000909192909190915055505050565b60025481565b60005b6002548210156109c4576108d583600160008581526020019081526020016000206004018054600181600116156101000203166002900480601f0160208091040260200160405190810160405280929190818152602001828054600181600116156101000203166002900480156108cb5780601f106108a0576101008083540402835291602001916108cb565b820191906000526020600020905b8154815290600101906020018083116108ae57829003601f168201915b5050505050610e78565b80610994575061099383600160008581526020019081526020016000206003018054600181600116156101000203166002900480601f0160208091040260200160405190810160405280929190818152602001828054600181600116156101000203166002900480156109895780601f1061095e57610100808354040283529160200191610989565b820191906000526020600020905b81548152906001019060200180831161096c57829003601f168201915b5050505050610e78565b5b156109b757600160008381526020019081526020016000206000015490506109c9565b8180600101925050610813565b600090505b92915050565b600082101580156109e1575060025482105b610a20576040517f08c379a0000000000000000000000000000000000000000000000000000000008152600401610a179061182c565b60405180910390fd5b60006001600084815260200190815260200160002090503373ffffffffffffffffffffffffffffffffffffffff168160020160009054906101000a900473ffffffffffffffffffffffffffffffffffffffff1673ffffffffffffffffffffffffffffffffffffffff161415610aca576040517f08c379a0000000000000000000000000000000000000000000000000000000008152600401610ac19061188c565b60405180910390fd5b6000803373ffffffffffffffffffffffffffffffffffffffff1673ffffffffffffffffffffffffffffffffffffffff168152602001908152602001600020600201600084815260200190815260200160002060009054906101000a900460ff16610b69576040517f08c379a0000000000000000000000000000000000000000000000000000000008152600401610b609061180c565b60405180910390fd5b8060080160003373ffffffffffffffffffffffffffffffffffffffff1673ffffffffffffffffffffffffffffffffffffffff16815260200190815260200160002060009054906101000a900460ff1615610bf8576040517f08c379a0000000000000000000000000000000000000000000000000000000008152600401610bef9061186c565b60405180910390fd5b8115610c17578060060160008154809291906001019190505550610c2c565b80600701600081548092919060010191905055505b60018160080160003373ffffffffffffffffffffffffffffffffffffffff1673ffffffffffffffffffffffffffffffffffffffff16815260200190815260200160002060006101000a81548160ff021916908315150217905550505050565b610c9361113f565b60008210158015610ca5575060025482105b610ce4576040517f08c379a0000000000000000000000000000000000000000000000000000000008152600401610cdb9061182c565b60405180910390fd5b60006001600084815260200190815260200160002090506040518060c0016040528082600001548152602001826003018054600181600116156101000203166002900480601f016020809104026020016040519081016040528092919081815260200182805460018160011615610100020316600290048015610da85780601f10610d7d57610100808354040283529160200191610da8565b820191906000526020600020905b815481529060010190602001808311610d8b57829003601f168201915b50505050508152602001826004018054600181600116156101000203166002900480601f016020809104026020016040519081016040528092919081815260200182805460018160011615610100020316600290048015610e4a5780601f10610e1f57610100808354040283529160200191610e4a565b820191906000526020600020905b815481529060010190602001808311610e2d57829003601f168201915b5050505050815260200182600501548152602001826006015481526020018260070154815250915050919050565b600080600090506000809050606085905060608590505b8051831015610f3c57808381518110610ea457fe5b602001015160f81c60f81b7effffffffffffffffffffffffffffffffffffffffffffffffffffffffffffff1916828581518110610edd57fe5b602001015160f81c60f81b7effffffffffffffffffffffffffffffffffffffffffffffffffffffffffffff19161415610f2f5783806001019450508151841415610f2e576001945050505050610f45565b5b8280600101935050610e8f565b60009450505050505b92915050565b60006001600060025481526020019081526020016000209050600254816000018190555084816001019080519060200190610f87929190611175565b50338160020160006101000a81548173ffffffffffffffffffffffffffffffffffffffff021916908373ffffffffffffffffffffffffffffffffffffffff16021790555083816003019080519060200190610fe3929190611175565b5082816004019080519060200190610ffc929190611175565b5081816005018190555060008160060181905550600081600701819055506000803373ffffffffffffffffffffffffffffffffffffffff1673ffffffffffffffffffffffffffffffffffffffff168152602001908152602001600020600001816000015490806001815401808255809150509060018203906000526020600020016000909192909190915055506002600081548092919060010191905055505050505050565b606060008060003373ffffffffffffffffffffffffffffffffffffffff1673ffffffffffffffffffffffffffffffffffffffff16815260200190815260200160002090508060010180548060200260200160405190810160405280929190818152602001828054801561113457602002820191906000526020600020905b815481526020019060010190808311611120575b505050505091505090565b6040518060c001604052806000815260200160608152602001606081526020016000815260200160008152602001600081525090565b828054600181600116156101000203166002900490600052602060002090601f016020900481019282601f106111b657805160ff19168380011785556111e4565b828001600101855582156111e4579182015b828111156111e35782518255916020019190600101906111c8565b5b5090506111f191906111f5565b5090565b61121791905b808211156112135760008160009055506001016111fb565b5090565b90565b60008135905061122981611a1c565b92915050565b600082601f83011261124057600080fd5b813561125361124e82611916565b6118e9565b9150808252602083016020830185838301111561126f57600080fd5b61127a8382846119c9565b50505092915050565b60008135905061129281611a33565b92915050565b600080604083850312156112ab57600080fd5b600083013567ffffffffffffffff8111156112c557600080fd5b6112d18582860161122f565b925050602083013567ffffffffffffffff8111156112ee57600080fd5b6112fa8582860161122f565b9150509250929050565b6000806000806080858703121561131a57600080fd5b600085013567ffffffffffffffff81111561133457600080fd5b6113408782880161122f565b945050602085013567ffffffffffffffff81111561135d57600080fd5b6113698782880161122f565b935050604085013567ffffffffffffffff81111561138657600080fd5b6113928782880161122f565b92505060606113a387828801611283565b91505092959194509250565b600080604083850312156113c257600080fd5b600083013567ffffffffffffffff8111156113dc57600080fd5b6113e88582860161122f565b92505060206113f985828601611283565b9150509250929050565b60006020828403121561141557600080fd5b600061142384828501611283565b91505092915050565b6000806040838503121561143f57600080fd5b600061144d85828601611283565b925050602061145e8582860161121a565b9150509250929050565b6000611474838361176f565b60208301905092915050565b600061148b82611952565b6114958185611980565b93506114a083611942565b8060005b838110156114d15781516114b88882611468565b97506114c383611973565b9250506001810190506114a4565b5085935050505092915050565b6114e7816119b3565b82525050565b60006114f882611968565b61150281856119a2565b93506115128185602086016119d8565b61151b81611a0b565b840191505092915050565b60006115318261195d565b61153b8185611991565b935061154b8185602086016119d8565b61155481611a0b565b840191505092915050565b600061156c6004836119a2565b91507f45303033000000000000000000000000000000000000000000000000000000006000830152602082019050919050565b60006115ac6004836119a2565b91507f45303034000000000000000000000000000000000000000000000000000000006000830152602082019050919050565b60006115ec6004836119a2565b91507f45303031000000000000000000000000000000000000000000000000000000006000830152602082019050919050565b600061162c6004836119a2565b91507f45303032000000000000000000000000000000000000000000000000000000006000830152602082019050919050565b600061166c6004836119a2565b91507f45303035000000000000000000000000000000000000000000000000000000006000830152602082019050919050565b60006116ac6004836119a2565b91507f45303036000000000000000000000000000000000000000000000000000000006000830152602082019050919050565b600060c0830160008301516116f7600086018261176f565b506020830151848203602086015261170f8282611526565b915050604083015184820360408601526117298282611526565b915050606083015161173e606086018261176f565b506080830151611751608086018261176f565b5060a083015161176460a086018261176f565b508091505092915050565b611778816119bf565b82525050565b611787816119bf565b82525050565b600060208201905081810360008301526117a78184611480565b905092915050565b60006020820190506117c460008301846114de565b92915050565b600060208201905081810360008301526117e481846114ed565b905092915050565b600060208201905081810360008301526118058161155f565b9050919050565b600060208201905081810360008301526118258161159f565b9050919050565b60006020820190508181036000830152611845816115df565b9050919050565b600060208201905081810360008301526118658161161f565b9050919050565b600060208201905081810360008301526118858161165f565b9050919050565b600060208201905081810360008301526118a58161169f565b9050919050565b600060208201905081810360008301526118c681846116df565b905092915050565b60006020820190506118e3600083018461177e565b92915050565b6000604051905081810181811067ffffffffffffffff8211171561190c57600080fd5b8060405250919050565b600067ffffffffffffffff82111561192d57600080fd5b601f19601f8301169050602081019050919050565b6000819050602082019050919050565b600081519050919050565b600081519050919050565b600081519050919050565b6000602082019050919050565b600082825260208201905092915050565b600082825260208201905092915050565b600082825260208201905092915050565b60008115159050919050565b6000819050919050565b82818337600083830152505050565b60005b838110156119f65780820151818401526020810190506119db565b83811115611a05576000848401525b50505050565b6000601f19601f8301169050919050565b611a25816119b3565b8114611a3057600080fd5b50565b611a3c816119bf565b8114611a4757600080fd5b5056fea365627a7a72315820a3d9a17c9f4c5302e7946d213f1c754c2104712083671d182166f5d0311adb7d6c6578706572696d656e74616cf564736f6c63430005100040",
  "source": "pragma solidity >=0.5.0 <0.8.0;\r\npragma experimental ABIEncoderV2;\r\n\r\ncontract MyBlock {\r\n    struct Post {\r\n        uint256 id;\r\n        string ipfsHash;\r\n        address payable owner;\r\n        string title;\r\n        string description;\r\n        uint256 fee;\r\n        uint256 likes;\r\n        uint256 dislikes;\r\n        mapping(address => bool) rated;\r\n    }\r\n\r\n    struct PostDetails {\r\n        uint256 id;\r\n        string title;\r\n        string description;\r\n        uint256 fee;\r\n        uint256 likes;\r\n        uint256 dislikes;\r\n    }\r\n\r\n    struct Profile {\r\n        uint256[] posted;\r\n        uint256[] owned;\r\n        mapping(uint256 => bool) purchased;\r\n    }\r\n\r\n    mapping(address => Profile) private users;\r\n    mapping(uint256 => Post) private posts;\r\n    uint256 public n_posts;\r\n\r\n    constructor() public {\r\n        n_posts = 1;\r\n    }\r\n\r\n    /**\r\n     * @dev push a post to MyBlock\r\n     * @param _ipfsHash - hash reference of image\r\n     * @param _description - string description of post\r\n     * @param _fee - int cost to access post\r\n     */\r\n    function pushPost(\r\n        string memory _ipfsHash,\r\n        string memory _title,\r\n        string memory _description,\r\n        uint256 _fee\r\n    ) public {\r\n        Post storage newPost = posts[n_posts];\r\n        newPost.id = n_posts;\r\n        newPost.ipfsHash = _ipfsHash;\r\n        newPost.owner = msg.sender;\r\n        newPost.title = _title;\r\n        newPost.description = _description;\r\n        newPost.fee = _fee;\r\n        newPost.likes = 0;\r\n        newPost.dislikes = 0;\r\n\r\n        users[msg.sender].posted.push(newPost.id);\r\n        n_posts++;\r\n    }\r\n\r\n    /**\r\n        E001 - Invalid post id\r\n        E002 - Already owns post\r\n        E003 - Minnium fee required\r\n        E004 - Do not own post\r\n        E005 - Post already rated\r\n        E006 - Owner cannot vote their post\r\n     */\r\n\r\n    /**\r\n     * @dev buy a post and pay owner\r\n     * @param postID - ID of post to buy\r\n     */\r\n    function buyPost(uint256 postID) public payable {\r\n        require(postID > 0 && postID < n_posts, \"E001\");\r\n\r\n        Post storage p = posts[postID];\r\n        require(\r\n            !(users[msg.sender].purchased[postID] || msg.sender == p.owner),\r\n            \"E002\"\r\n        );\r\n\r\n        require(msg.value >= p.fee, \"E003\");\r\n        p.owner.transfer(msg.value);\r\n        users[msg.sender].purchased[postID] = true;\r\n        users[msg.sender].owned.push(postID);\r\n    }\r\n\r\n    /**\r\n     * @dev view a post\r\n     * @param postID - ID of post to view\r\n     * @return string - hash of post\r\n     */\r\n    function viewPost(uint256 postID) public view returns (string memory) {\r\n        require(postID > 0 && postID < n_posts, \"E001\");\r\n\r\n        Post storage p = posts[postID];\r\n        require(\r\n            users[msg.sender].purchased[postID] || msg.sender == p.owner,\r\n            \"E004\"\r\n        );\r\n\r\n        return p.ipfsHash;\r\n    }\r\n\r\n    /**\r\n     * @dev rate a post positively or negatively\r\n     * @param postID - ID of post to like or dislike\r\n     * @param like - determines if post is to be rated or disrated\r\n     */\r\n    function ratePost(uint256 postID, bool like) public {\r\n        require(postID >= 0 && postID < n_posts, \"E001\");\r\n        Post storage p = posts[postID];\r\n        require(p.owner != msg.sender, \"E006\");\r\n        require(users[msg.sender].purchased[postID], \"E004\");\r\n        require(!p.rated[msg.sender], \"E005\");\r\n        if (like) {\r\n            p.likes++;\r\n        } else {\r\n            p.dislikes++;\r\n        }\r\n        p.rated[msg.sender] = true;\r\n    }\r\n\r\n    /**\r\n     * @dev return details of a post\r\n     * @param postID - ID of post for which details are returned\r\n     * @return PostDetails */\r\n    function getPostDetails(uint256 postID)\r\n        public\r\n        view\r\n        returns (PostDetails memory)\r\n    {\r\n        require(postID >= 0 && postID < n_posts, \"E001\");\r\n        Post storage p = posts[postID];\r\n\r\n        return\r\n            PostDetails({\r\n                id: p.id,\r\n                title: p.title,\r\n                description: p.description,\r\n                fee: p.fee,\r\n                likes: p.likes,\r\n                dislikes: p.dislikes\r\n            });\r\n    }\r\n\r\n    /**\r\n     * @dev searches for post based on description\r\n     * @param search - description to search for\r\n     * @return true if substring\r\n     */\r\n    function searchPost(string memory search, uint256 start)\r\n        public\r\n        view\r\n        returns (uint256)\r\n    {\r\n        while (start < n_posts) {\r\n            if (\r\n                isSub(search, posts[start].description) ||\r\n                isSub(search, posts[start].title)\r\n            ) {\r\n                return (posts[start].id);\r\n            }\r\n            start++;\r\n        }\r\n        return 0;\r\n    }\r\n\r\n    function getUserOwned() public view returns (uint256[] memory) {\r\n        Profile storage profile = users[msg.sender];\r\n        return profile.owned;\r\n    }\r\n\r\n    function getUserPosted() public view returns (uint256[] memory) {\r\n        Profile storage profile = users[msg.sender];\r\n        return profile.posted;\r\n    }\r\n\r\n    /**\r\n     * @dev utility method to conver string to bytes32\r\n     * @param source string to convert\r\n     * @return result\r\n     * Notes:\r\n     *      source - https://ethereum.stackexchange.com/questions/9142/how-to-convert-a-string-to-bytes32\r\n     */\r\n    function stringToBytes32(string memory source)\r\n        private\r\n        pure\r\n        returns (bytes32 result)\r\n    {\r\n        bytes memory tempEmptyStringTest = bytes(source);\r\n        if (tempEmptyStringTest.length == 0) {\r\n            return 0x0;\r\n        }\r\n\r\n        assembly {\r\n            result := mload(add(source, 32))\r\n        }\r\n    }\r\n\r\n    /**\r\n     * @dev utility to match substrings for searching\r\n     * @param _sub sequence to search for\r\n     * @param _seq to search in\r\n     * @return bool\r\n     */\r\n    function isSub(string memory _sub, string memory _seq)\r\n        public\r\n        pure\r\n        returns (bool)\r\n    {\r\n        uint256 i = 0;\r\n        uint256 j = 0;\r\n\r\n        bytes memory sub = bytes(_sub);\r\n        bytes memory seq = bytes(_seq);\r\n\r\n        while (j < bytes(seq).length) {\r\n            if (sub[i] == seq[j]) {\r\n                i++;\r\n                if (i == sub.length) {\r\n                    return true;\r\n                }\r\n            }\r\n            j++;\r\n        }\r\n        return false;\r\n    }\r\n}\r\n",
  "sourcePath": "C:/Users/tomas/src/BlockChain-FinalProject/myBlock/contracts/MyBlock.sol",
  "compiler": {
    "name": "solc",
    "version": "0.5.16+commit.9c3226ce.Emscripten.clang"
  },
  "schemaVersion": "3.3.1",
  "updatedAt": "2020-11-29T16:03:33.604Z",
  "networkType": "ethereum",
  "devdoc": {
    "methods": {
      "buyPost(uint256)": {
        "details": "buy a post and pay owner",
        "params": {
          "postID": "- ID of post to buy"
        }
      },
      "getPostDetails(uint256)": {
        "details": "return details of a post",
        "params": {
          "postID": "- ID of post for which details are returned"
        },
        "return": "PostDetails "
      },
      "isSub(string,string)": {
        "details": "utility to match substrings for searching",
        "params": {
          "_seq": "to search in",
          "_sub": "sequence to search for"
        },
        "return": "bool"
      },
      "pushPost(string,string,string,uint256)": {
        "details": "push a post to MyBlock",
        "params": {
          "_description": "- string description of post",
          "_fee": "- int cost to access post",
          "_ipfsHash": "- hash reference of image"
        }
      },
      "ratePost(uint256,bool)": {
        "details": "rate a post positively or negatively",
        "params": {
          "like": "- determines if post is to be rated or disrated",
          "postID": "- ID of post to like or dislike"
        }
      },
      "searchPost(string,uint256)": {
        "details": "searches for post based on description",
        "params": {
          "search": "- description to search for"
        },
        "return": "true if substring"
      },
      "viewPost(uint256)": {
        "details": "view a post",
        "params": {
          "postID": "- ID of post to view"
        },
        "return": "string - hash of post"
      }
    }
  },
  "userdoc": {
    "methods": {}
  }
}