{
  "contractName": "MyBlock",
  "abi": [
    {
      "inputs": [],
      "payable": false,
      "stateMutability": "nonpayable",
      "type": "constructor"
    },
    {
      "constant": true,
      "inputs": [
        {
          "internalType": "uint256",
          "name": "",
          "type": "uint256"
        }
      ],
      "name": "postIdList",
      "outputs": [
        {
          "internalType": "uint256",
          "name": "",
          "type": "uint256"
        }
      ],
      "payable": false,
      "stateMutability": "view",
      "type": "function"
    },
    {
      "constant": false,
      "inputs": [
        {
          "internalType": "string",
          "name": "description",
          "type": "string"
        },
        {
          "internalType": "uint256",
          "name": "fee",
          "type": "uint256"
        }
      ],
      "name": "pushPost",
      "outputs": [
        {
          "internalType": "bool",
          "name": "",
          "type": "bool"
        }
      ],
      "payable": false,
      "stateMutability": "nonpayable",
      "type": "function"
    },
    {
      "constant": false,
      "inputs": [
        {
          "internalType": "uint256",
          "name": "postID",
          "type": "uint256"
        }
      ],
      "name": "viewPost",
      "outputs": [
        {
          "internalType": "string",
          "name": "",
          "type": "string"
        }
      ],
      "payable": true,
      "stateMutability": "payable",
      "type": "function"
    },
    {
      "constant": false,
      "inputs": [
        {
          "internalType": "uint256",
          "name": "postID",
          "type": "uint256"
        },
        {
          "internalType": "bool",
          "name": "like",
          "type": "bool"
        }
      ],
      "name": "ratePost",
      "outputs": [],
      "payable": false,
      "stateMutability": "nonpayable",
      "type": "function"
    },
    {
      "constant": true,
      "inputs": [
        {
          "internalType": "uint256",
          "name": "postID",
          "type": "uint256"
        }
      ],
      "name": "getDescription",
      "outputs": [
        {
          "internalType": "bytes32",
          "name": "",
          "type": "bytes32"
        }
      ],
      "payable": false,
      "stateMutability": "view",
      "type": "function"
    },
    {
      "constant": true,
      "inputs": [
        {
          "internalType": "uint256",
          "name": "postID",
          "type": "uint256"
        }
      ],
      "name": "getLikes",
      "outputs": [
        {
          "internalType": "uint256",
          "name": "",
          "type": "uint256"
        }
      ],
      "payable": false,
      "stateMutability": "view",
      "type": "function"
    },
    {
      "constant": true,
      "inputs": [
        {
          "internalType": "uint256",
          "name": "postID",
          "type": "uint256"
        }
      ],
      "name": "getDislikes",
      "outputs": [
        {
          "internalType": "uint256",
          "name": "",
          "type": "uint256"
        }
      ],
      "payable": false,
      "stateMutability": "view",
      "type": "function"
    },
    {
      "constant": true,
      "inputs": [
        {
          "internalType": "uint256",
          "name": "postID",
          "type": "uint256"
        }
      ],
      "name": "getPostDetails",
      "outputs": [
        {
          "components": [
            {
              "internalType": "uint256",
              "name": "id",
              "type": "uint256"
            },
            {
              "internalType": "string",
              "name": "description",
              "type": "string"
            },
            {
              "internalType": "uint256",
              "name": "fee",
              "type": "uint256"
            },
            {
              "internalType": "uint256",
              "name": "likes",
              "type": "uint256"
            },
            {
              "internalType": "uint256",
              "name": "dislikes",
              "type": "uint256"
            }
          ],
          "internalType": "struct MyBlock.PostDetails",
          "name": "",
          "type": "tuple"
        }
      ],
      "payable": false,
      "stateMutability": "view",
      "type": "function"
    },
    {
      "constant": false,
      "inputs": [
        {
          "internalType": "string",
          "name": "search",
          "type": "string"
        }
      ],
      "name": "searchPost",
      "outputs": [
        {
          "internalType": "bytes32[]",
          "name": "",
          "type": "bytes32[]"
        }
      ],
      "payable": false,
      "stateMutability": "nonpayable",
      "type": "function"
    }
  ],
  "bytecode": "0x608060405234801561001057600080fd5b5060006002819055506114ff806100286000396000f3fe6080604052600436106100865760003560e01c80639fc226f4116100595780639fc226f41461015e578063a209081e1461019b578063bd5f7b76146101d8578063debb24de14610215578063efdd87e81461025257610086565b8063032e2d301461008b57806303c0f7d2146100c85780634925ec55146100f857806392f1377514610135575b600080fd5b34801561009757600080fd5b506100b260048036036100ad9190810190610e51565b61028f565b6040516100bf919061121a565b60405180910390f35b6100e260048036036100dd9190810190610ee6565b610296565b6040516100ef9190611272565b60405180910390f35b34801561010457600080fd5b5061011f600480360361011a9190810190610ee6565b610561565b60405161012c9190611257565b60405180910390f35b34801561014157600080fd5b5061015c60048036036101579190810190610f0f565b610671565b005b34801561016a57600080fd5b5061018560048036036101809190810190610ee6565b610889565b6040516101929190611314565b60405180910390f35b3480156101a757600080fd5b506101c260048036036101bd9190810190610ee6565b6109d4565b6040516101cf9190611336565b60405180910390f35b3480156101e457600080fd5b506101ff60048036036101fa9190810190610ee6565b610a44565b60405161020c9190611336565b60405180910390f35b34801561022157600080fd5b5061023c60048036036102379190810190610ee6565b610a65565b6040516102499190611336565b60405180910390f35b34801561025e57600080fd5b5061027960048036036102749190810190610e92565b610ad5565b604051610286919061123c565b60405180910390f35b6060919050565b6060600082101580156102aa575060025482105b6102e9576040517f08c379a00000000000000000000000000000000000000000000000000000000081526004016102e090611294565b60405180910390fd5b60006001600084815260200190815260200160002090508060060160003373ffffffffffffffffffffffffffffffffffffffff1673ffffffffffffffffffffffffffffffffffffffff16815260200190815260200160002060009054906101000a900460ff1615806103aa57508060010160009054906101000a900473ffffffffffffffffffffffffffffffffffffffff1673ffffffffffffffffffffffffffffffffffffffff163373ffffffffffffffffffffffffffffffffffffffff16145b156104bc5780600301543410156103f6576040517f08c379a00000000000000000000000000000000000000000000000000000000081526004016103ed906112d4565b60405180910390fd5b8060010160009054906101000a900473ffffffffffffffffffffffffffffffffffffffff1673ffffffffffffffffffffffffffffffffffffffff166108fc349081150290604051600060405180830381858888f19350505050158015610460573d6000803e3d6000fd5b5060018160060160003373ffffffffffffffffffffffffffffffffffffffff1673ffffffffffffffffffffffffffffffffffffffff16815260200190815260200160002060006101000a81548160ff0219169083151502179055505b806002018054600181600116156101000203166002900480601f0160208091040260200160405190810160405280929190818152602001828054600181600116156101000203166002900480156105545780601f1061052957610100808354040283529160200191610554565b820191906000526020600020905b81548152906001019060200180831161053757829003601f168201915b5050505050915050919050565b6000808210158015610574575060025482105b6105b3576040517f08c379a00000000000000000000000000000000000000000000000000000000081526004016105aa90611294565b60405180910390fd5b61066a600160008481526020019081526020016000206002018054600181600116156101000203166002900480601f0160208091040260200160405190810160405280929190818152602001828054600181600116156101000203166002900480156106605780601f1061063557610100808354040283529160200191610660565b820191906000526020600020905b81548152906001019060200180831161064357829003601f168201915b5050505050610c88565b9050919050565b60008210158015610683575060025482105b6106c2576040517f08c379a00000000000000000000000000000000000000000000000000000000081526004016106b990611294565b60405180910390fd5b60006001600084815260200190815260200160002090508060060160003373ffffffffffffffffffffffffffffffffffffffff1673ffffffffffffffffffffffffffffffffffffffff16815260200190815260200160002060009054906101000a900460ff16610767576040517f08c379a000000000000000000000000000000000000000000000000000000000815260040161075e906112b4565b60405180910390fd5b8060070160003373ffffffffffffffffffffffffffffffffffffffff1673ffffffffffffffffffffffffffffffffffffffff16815260200190815260200160002060009054906101000a900460ff16156107f6576040517f08c379a00000000000000000000000000000000000000000000000000000000081526004016107ed906112f4565b60405180910390fd5b811561081557806004016000815480929190600101919050555061082a565b80600501600081548092919060010191905055505b60018160070160003373ffffffffffffffffffffffffffffffffffffffff1673ffffffffffffffffffffffffffffffffffffffff16815260200190815260200160002060006101000a81548160ff021916908315150217905550505050565b610891610cb3565b600082101580156108a3575060025482105b6108e2576040517f08c379a00000000000000000000000000000000000000000000000000000000081526004016108d990611294565b60405180910390fd5b60006001600084815260200190815260200160002090506040518060a0016040528082600001548152602001826002018054600181600116156101000203166002900480601f0160208091040260200160405190810160405280929190818152602001828054600181600116156101000203166002900480156109a65780601f1061097b576101008083540402835291602001916109a6565b820191906000526020600020905b81548152906001019060200180831161098957829003601f168201915b5050505050815260200182600301548152602001826004015481526020018260050154815250915050919050565b60008082101580156109e7575060025482105b610a26576040517f08c379a0000000000000000000000000000000000000000000000000000000008152600401610a1d90611294565b60405180910390fd5b60016000838152602001908152602001600020600401549050919050565b60038181548110610a5157fe5b906000526020600020016000915090505481565b6000808210158015610a78575060025482105b610ab7576040517f08c379a0000000000000000000000000000000000000000000000000000000008152600401610aae90611294565b60405180910390fd5b60016000838152602001908152602001600020600501549050919050565b6000610adf610ce2565b6040518060c0016040528060025481526020013373ffffffffffffffffffffffffffffffffffffffff16815260200185815260200184815260200160008152602001600081525090508060016000836000015181526020019081526020016000206000820151816000015560208201518160010160006101000a81548173ffffffffffffffffffffffffffffffffffffffff021916908373ffffffffffffffffffffffffffffffffffffffff1602179055506040820151816002019080519060200190610bad929190610d2e565b50606082015181600301556080820151816004015560a082015181600501559050506003816000015190806001815401808255809150509060018203906000526020600020016000909192909190915055506000803373ffffffffffffffffffffffffffffffffffffffff1673ffffffffffffffffffffffffffffffffffffffff16815260200190815260200160002081600001519080600181540180825580915050906001820390600052602060002001600090919290919091505550600260008154809291906001019190505550600191505092915050565b60006060829050600081511415610ca5576000801b915050610cae565b60208301519150505b919050565b6040518060a0016040528060008152602001606081526020016000815260200160008152602001600081525090565b6040518060c0016040528060008152602001600073ffffffffffffffffffffffffffffffffffffffff168152602001606081526020016000815260200160008152602001600081525090565b828054600181600116156101000203166002900490600052602060002090601f016020900481019282601f10610d6f57805160ff1916838001178555610d9d565b82800160010185558215610d9d579182015b82811115610d9c578251825591602001919060010190610d81565b5b509050610daa9190610dae565b5090565b610dd091905b80821115610dcc576000816000905550600101610db4565b5090565b90565b600081359050610de28161148e565b92915050565b600082601f830112610df957600080fd5b8135610e0c610e078261137e565b611351565b91508082526020830160208301858383011115610e2857600080fd5b610e3383828461143b565b50505092915050565b600081359050610e4b816114a5565b92915050565b600060208284031215610e6357600080fd5b600082013567ffffffffffffffff811115610e7d57600080fd5b610e8984828501610de8565b91505092915050565b60008060408385031215610ea557600080fd5b600083013567ffffffffffffffff811115610ebf57600080fd5b610ecb85828601610de8565b9250506020610edc85828601610e3c565b9150509250929050565b600060208284031215610ef857600080fd5b6000610f0684828501610e3c565b91505092915050565b60008060408385031215610f2257600080fd5b6000610f3085828601610e3c565b9250506020610f4185828601610dd3565b9150509250929050565b6000610f578383610fd0565b60208301905092915050565b6000610f6e826113ba565b610f7881856113e8565b9350610f83836113aa565b8060005b83811015610fb4578151610f9b8882610f4b565b9750610fa6836113db565b925050600181019050610f87565b5085935050505092915050565b610fca8161141b565b82525050565b610fd981611427565b82525050565b610fe881611427565b82525050565b6000610ff9826113d0565b611003818561140a565b935061101381856020860161144a565b61101c8161147d565b840191505092915050565b6000611032826113c5565b61103c81856113f9565b935061104c81856020860161144a565b6110558161147d565b840191505092915050565b600061106d600f8361140a565b91507f494e56414c494420504f535420494400000000000000000000000000000000006000830152602082019050919050565b60006110ad60128361140a565b91507f504f5354204e4f542050555243484153454400000000000000000000000000006000830152602082019050919050565b60006110ed60238361140a565b91507f4e65656420746f20706179206174206c65617374206d696e696d756d206f662060008301527f66656500000000000000000000000000000000000000000000000000000000006020830152604082019050919050565b600061115360128361140a565b91507f504f535420414c524541445920524154454400000000000000000000000000006000830152602082019050919050565b600060a08301600083015161119e60008601826111fc565b50602083015184820360208601526111b68282611027565b91505060408301516111cb60408601826111fc565b5060608301516111de60608601826111fc565b5060808301516111f160808601826111fc565b508091505092915050565b61120581611431565b82525050565b61121481611431565b82525050565b600060208201905081810360008301526112348184610f63565b905092915050565b60006020820190506112516000830184610fc1565b92915050565b600060208201905061126c6000830184610fdf565b92915050565b6000602082019050818103600083015261128c8184610fee565b905092915050565b600060208201905081810360008301526112ad81611060565b9050919050565b600060208201905081810360008301526112cd816110a0565b9050919050565b600060208201905081810360008301526112ed816110e0565b9050919050565b6000602082019050818103600083015261130d81611146565b9050919050565b6000602082019050818103600083015261132e8184611186565b905092915050565b600060208201905061134b600083018461120b565b92915050565b6000604051905081810181811067ffffffffffffffff8211171561137457600080fd5b8060405250919050565b600067ffffffffffffffff82111561139557600080fd5b601f19601f8301169050602081019050919050565b6000819050602082019050919050565b600081519050919050565b600081519050919050565b600081519050919050565b6000602082019050919050565b600082825260208201905092915050565b600082825260208201905092915050565b600082825260208201905092915050565b60008115159050919050565b6000819050919050565b6000819050919050565b82818337600083830152505050565b60005b8381101561146857808201518184015260208101905061144d565b83811115611477576000848401525b50505050565b6000601f19601f8301169050919050565b6114978161141b565b81146114a257600080fd5b50565b6114ae81611431565b81146114b957600080fd5b5056fea365627a7a72315820692801449280f7dfa112b97683fdedab8fe3eb063ec3fdab0c8edf77534c51ff6c6578706572696d656e74616cf564736f6c63430005100040",
  "source": "pragma solidity >=0.5.0 <0.8.0;\r\npragma experimental ABIEncoderV2;\r\n\r\ncontract MyBlock {\r\n    struct Post {\r\n        uint256 id;\r\n        //bytes32 post;\r\n        address payable owner;\r\n        string description;\r\n        uint256 fee;\r\n        uint256 likes;\r\n        uint256 dislikes;\r\n        mapping(address => bool) payed;\r\n        mapping(address => bool) liked;\r\n    }\r\n\r\n    struct PostDetails {\r\n        uint256 id;\r\n        string description;\r\n        uint256 fee;\r\n        uint256 likes;\r\n        uint256 dislikes;\r\n    }\r\n\r\n    mapping(address => uint256[]) private users;\r\n    mapping(uint256 => Post) private posts;\r\n    uint256 private n_posts;\r\n    uint256[] public postIdList;\r\n\r\n    constructor() public {\r\n        n_posts = 0;\r\n    }\r\n\r\n    /**TODO - actual post implementation, current supports string description to post\r\n     * @dev push a post to MyBlock\r\n     * @param description - string description of post\r\n     * @param fee - int cost to access post\r\n     */\r\n    function pushPost(string memory description, uint256 fee)\r\n        public\r\n        returns (bool)\r\n    {\r\n        Post memory newPost = Post({\r\n            id: n_posts, // TODO: INITIALIZE POST ITSELF\r\n            owner: msg.sender,\r\n            description: description,\r\n            fee: fee,\r\n            likes: 0,\r\n            dislikes: 0\r\n        });\r\n        posts[newPost.id] = newPost;\r\n        postIdList.push(newPost.id);\r\n        users[msg.sender].push(newPost.id);\r\n        n_posts++;\r\n\r\n        return true;\r\n    }\r\n\r\n    /**TODO - actual post implementation, current supports strings description return\r\n     * @dev buy a post and pay owner\r\n     * @param postID - ID of post to buy\r\n     *\r\n     */\r\n    function viewPost(uint256 postID) public payable returns (string memory) {\r\n        require(postID >= 0 && postID < n_posts, \"INVALID POST ID\");\r\n        Post storage p = posts[postID];\r\n\r\n        if (!p.payed[msg.sender] || msg.sender == p.owner) {\r\n            require(msg.value >= p.fee, \"Need to pay at least minimum of fee\");\r\n            p.owner.transfer(msg.value);\r\n            p.payed[msg.sender] = true;\r\n        }\r\n\r\n        return p.description;\r\n    }\r\n\r\n    /**\r\n     * @dev rate a post positively or negatively\r\n     * @param postID - ID of post to like or dislike\r\n     * @param like - determines if post is to be liked or disliked\r\n     */\r\n    function ratePost(uint256 postID, bool like) public {\r\n        require(postID >= 0 && postID < n_posts, \"INVALID POST ID\");\r\n        Post storage p = posts[postID];\r\n        require(p.payed[msg.sender], \"POST NOT PURCHASED\");\r\n        require(!p.liked[msg.sender], \"POST ALREADY RATED\");\r\n        if (like) {\r\n            p.likes++;\r\n        } else {\r\n            p.dislikes++;\r\n        }\r\n        p.liked[msg.sender] = true;\r\n    }\r\n\r\n    /**\r\n     * @dev returns description of specified post\r\n     * @param postID - ID of post to return\r\n     * @return description of a respective post\r\n     */\r\n    function getDescription(uint256 postID) public view returns (bytes32) {\r\n        require(postID >= 0 && postID < n_posts, \"INVALID POST ID\");\r\n        return stringToBytes32(posts[postID].description);\r\n    }\r\n\r\n    /**\r\n     * @dev returns uint of likes of specified post\r\n     * @param postID - ID of post to return\r\n     * @return likes of a respective post\r\n     */\r\n    function getLikes(uint256 postID) public view returns (uint256) {\r\n        require(postID >= 0 && postID < n_posts, \"INVALID POST ID\");\r\n        return posts[postID].likes;\r\n    }\r\n\r\n    /**\r\n     * @dev returns uint of dislikes of specified post\r\n     * @param postID - ID of post to return\r\n     * @return dislikes of a respective post\r\n     */\r\n    function getDislikes(uint256 postID) public view returns (uint256) {\r\n        require(postID >= 0 && postID < n_posts, \"INVALID POST ID\");\r\n        return posts[postID].dislikes;\r\n    }\r\n\r\n    function getPostDetails(uint256 postID)\r\n        public\r\n        view\r\n        returns (PostDetails memory)\r\n    {\r\n        require(postID >= 0 && postID < n_posts, \"INVALID POST ID\");\r\n        Post storage p = posts[postID];\r\n\r\n        return\r\n            PostDetails({\r\n                id: p.id,\r\n                description: p.description,\r\n                fee: p.fee,\r\n                likes: p.likes,\r\n                dislikes: p.dislikes\r\n            });\r\n    }\r\n\r\n    /**TODO\r\n     * @dev searches for post based on description\r\n     * @param search - description to search for\r\n     */\r\n    function searchPost(string memory search)\r\n        public\r\n        returns (bytes32[] memory)\r\n    {}\r\n\r\n    /**\r\n     * @dev utility method to conver string to bytes32\r\n     * @param source string to convert\r\n     * @return result\r\n     * Notes:\r\n     *      source - https://ethereum.stackexchange.com/questions/9142/how-to-convert-a-string-to-bytes32\r\n     */\r\n    function stringToBytes32(string memory source)\r\n        private\r\n        pure\r\n        returns (bytes32 result)\r\n    {\r\n        bytes memory tempEmptyStringTest = bytes(source);\r\n        if (tempEmptyStringTest.length == 0) {\r\n            return 0x0;\r\n        }\r\n\r\n        assembly {\r\n            result := mload(add(source, 32))\r\n        }\r\n    }\r\n}\r\n",
  "sourcePath": "C:/Users/tomas/src/BlockChain-FinalProject/myBlock/contracts/MyBlock.sol",
  "compiler": {
    "name": "solc",
    "version": "0.5.16+commit.9c3226ce.Emscripten.clang"
  },
  "schemaVersion": "3.3.1",
  "updatedAt": "2020-11-16T04:36:02.640Z",
  "networkType": "ethereum",
  "devdoc": {
    "methods": {
      "getDescription(uint256)": {
        "details": "returns description of specified post",
        "params": {
          "postID": "- ID of post to return"
        },
        "return": "description of a respective post"
      },
      "getDislikes(uint256)": {
        "details": "returns uint of dislikes of specified post",
        "params": {
          "postID": "- ID of post to return"
        },
        "return": "dislikes of a respective post"
      },
      "getLikes(uint256)": {
        "details": "returns uint of likes of specified post",
        "params": {
          "postID": "- ID of post to return"
        },
        "return": "likes of a respective post"
      },
      "pushPost(string,uint256)": {
        "details": "push a post to MyBlock",
        "params": {
          "description": "- string description of post",
          "fee": "- int cost to access post"
        }
      },
      "ratePost(uint256,bool)": {
        "details": "rate a post positively or negatively",
        "params": {
          "like": "- determines if post is to be liked or disliked",
          "postID": "- ID of post to like or dislike"
        }
      },
      "searchPost(string)": {
        "details": "searches for post based on description",
        "params": {
          "search": "- description to search for"
        }
      },
      "viewPost(uint256)": {
        "details": "buy a post and pay owner",
        "params": {
          "postID": "- ID of post to buy      "
        }
      }
    }
  },
  "userdoc": {
    "methods": {
      "pushPost(string,uint256)": {
        "notice": "TODO - actual post implementation, current supports string description to post"
      },
      "searchPost(string)": {
        "notice": "TODO"
      },
      "viewPost(uint256)": {
        "notice": "TODO - actual post implementation, current supports strings description return"
      }
    }
  }
}