{
  "contractName": "MyBlock",
  "abi": [
    {
      "inputs": [],
      "payable": false,
      "stateMutability": "nonpayable",
      "type": "constructor"
    },
    {
      "constant": true,
      "inputs": [],
      "name": "n_posts",
      "outputs": [
        {
          "internalType": "uint256",
          "name": "",
          "type": "uint256"
        }
      ],
      "payable": false,
      "stateMutability": "view",
      "type": "function"
    },
    {
      "constant": false,
      "inputs": [
        {
          "internalType": "string",
          "name": "_ipfsHash",
          "type": "string"
        },
        {
          "internalType": "string",
          "name": "_description",
          "type": "string"
        },
        {
          "internalType": "uint256",
          "name": "_fee",
          "type": "uint256"
        }
      ],
      "name": "pushPost",
      "outputs": [],
      "payable": false,
      "stateMutability": "nonpayable",
      "type": "function"
    },
    {
      "constant": false,
      "inputs": [
        {
          "internalType": "uint256",
          "name": "postID",
          "type": "uint256"
        }
      ],
      "name": "buyPost",
      "outputs": [],
      "payable": true,
      "stateMutability": "payable",
      "type": "function"
    },
    {
      "constant": true,
      "inputs": [
        {
          "internalType": "uint256",
          "name": "postID",
          "type": "uint256"
        }
      ],
      "name": "viewPost",
      "outputs": [
        {
          "internalType": "string",
          "name": "",
          "type": "string"
        }
      ],
      "payable": false,
      "stateMutability": "view",
      "type": "function"
    },
    {
      "constant": false,
      "inputs": [
        {
          "internalType": "uint256",
          "name": "postID",
          "type": "uint256"
        },
        {
          "internalType": "bool",
          "name": "like",
          "type": "bool"
        }
      ],
      "name": "ratePost",
      "outputs": [],
      "payable": false,
      "stateMutability": "nonpayable",
      "type": "function"
    },
    {
      "constant": true,
      "inputs": [
        {
          "internalType": "uint256",
          "name": "postID",
          "type": "uint256"
        }
      ],
      "name": "getPostDetails",
      "outputs": [
        {
          "components": [
            {
              "internalType": "uint256",
              "name": "id",
              "type": "uint256"
            },
            {
              "internalType": "string",
              "name": "description",
              "type": "string"
            },
            {
              "internalType": "uint256",
              "name": "fee",
              "type": "uint256"
            },
            {
              "internalType": "uint256",
              "name": "likes",
              "type": "uint256"
            },
            {
              "internalType": "uint256",
              "name": "dislikes",
              "type": "uint256"
            }
          ],
          "internalType": "struct MyBlock.PostDetails",
          "name": "",
          "type": "tuple"
        }
      ],
      "payable": false,
      "stateMutability": "view",
      "type": "function"
    },
    {
      "constant": true,
      "inputs": [
        {
          "internalType": "string",
          "name": "_search",
          "type": "string"
        },
        {
          "internalType": "uint256",
          "name": "start",
          "type": "uint256"
        }
      ],
      "name": "searchPost",
      "outputs": [
        {
          "internalType": "uint256",
          "name": "",
          "type": "uint256"
        }
      ],
      "payable": false,
      "stateMutability": "view",
      "type": "function"
    }
  ],
  "bytecode": "0x608060405234801561001057600080fd5b50600160028190555061146c806100286000396000f3fe6080604052600436106100705760003560e01c8063574530191161004e57806357453019146100f75780635d4dda7c1461012257806392f137751461015f5780639fc226f41461018857610070565b806303c0f7d2146100755780632fa67338146100b257806348cb2718146100ce575b600080fd5b34801561008157600080fd5b5061009c60048036036100979190810190610ef7565b6101c5565b6040516100a991906111e2565b60405180910390f35b6100cc60048036036100c79190810190610ef7565b6103cc565b005b3480156100da57600080fd5b506100f560048036036100f09190810190610e24565b61064e565b005b34801561010357600080fd5b5061010c61078b565b60405161011991906112e6565b60405180910390f35b34801561012e57600080fd5b5061014960048036036101449190810190610ea3565b610791565b60405161015691906112e6565b60405180910390f35b34801561016b57600080fd5b5061018660048036036101819190810190610f20565b6108a0565b005b34801561019457600080fd5b506101af60048036036101aa9190810190610ef7565b610b5c565b6040516101bc91906112c4565b60405180910390f35b60606000821180156101d8575060025482105b610217576040517f08c379a000000000000000000000000000000000000000000000000000000000815260040161020e90611244565b60405180910390fd5b60006001600084815260200190815260200160002090506000803373ffffffffffffffffffffffffffffffffffffffff1673ffffffffffffffffffffffffffffffffffffffff168152602001908152602001600020600101600084815260200190815260200160002060009054906101000a900460ff16806102e857508060020160009054906101000a900473ffffffffffffffffffffffffffffffffffffffff1673ffffffffffffffffffffffffffffffffffffffff163373ffffffffffffffffffffffffffffffffffffffff16145b610327576040517f08c379a000000000000000000000000000000000000000000000000000000000815260040161031e90611224565b60405180910390fd5b806001018054600181600116156101000203166002900480601f0160208091040260200160405190810160405280929190818152602001828054600181600116156101000203166002900480156103bf5780601f10610394576101008083540402835291602001916103bf565b820191906000526020600020905b8154815290600101906020018083116103a257829003601f168201915b5050505050915050919050565b6000811180156103dd575060025481105b61041c576040517f08c379a000000000000000000000000000000000000000000000000000000000815260040161041390611244565b60405180910390fd5b60006001600083815260200190815260200160002090506000803373ffffffffffffffffffffffffffffffffffffffff1673ffffffffffffffffffffffffffffffffffffffff168152602001908152602001600020600101600083815260200190815260200160002060009054906101000a900460ff16806104ed57508060020160009054906101000a900473ffffffffffffffffffffffffffffffffffffffff1673ffffffffffffffffffffffffffffffffffffffff163373ffffffffffffffffffffffffffffffffffffffff16145b1561052d576040517f08c379a000000000000000000000000000000000000000000000000000000000815260040161052490611264565b60405180910390fd5b8060040154341015610574576040517f08c379a000000000000000000000000000000000000000000000000000000000815260040161056b90611204565b60405180910390fd5b8060020160009054906101000a900473ffffffffffffffffffffffffffffffffffffffff1673ffffffffffffffffffffffffffffffffffffffff166108fc349081150290604051600060405180830381858888f193505050501580156105de573d6000803e3d6000fd5b5060016000803373ffffffffffffffffffffffffffffffffffffffff1673ffffffffffffffffffffffffffffffffffffffff168152602001908152602001600020600101600084815260200190815260200160002060006101000a81548160ff0219169083151502179055505050565b6000600160006002548152602001908152602001600020905060025481600001819055508381600101908051906020019061068a929190610cd2565b50338160020160006101000a81548173ffffffffffffffffffffffffffffffffffffffff021916908373ffffffffffffffffffffffffffffffffffffffff160217905550828160030190805190602001906106e6929190610cd2565b5081816004018190555060008160050181905550600081600601819055506000803373ffffffffffffffffffffffffffffffffffffffff1673ffffffffffffffffffffffffffffffffffffffff1681526020019081526020016000206000018160000154908060018154018082558091505090600182039060005260206000200160009091929091909150555060026000815480929190600101919050555050505050565b60025481565b60008061079d84610ca7565b90505b6002548310156108945780610862600160008681526020019081526020016000206003018054600181600116156101000203166002900480601f0160208091040260200160405190810160405280929190818152602001828054600181600116156101000203166002900480156108585780601f1061082d57610100808354040283529160200191610858565b820191906000526020600020905b81548152906001019060200180831161083b57829003601f168201915b5050505050610ca7565b141561088757600160008481526020019081526020016000206000015491505061089a565b82806001019350506107a0565b60009150505b92915050565b600082101580156108b2575060025482105b6108f1576040517f08c379a00000000000000000000000000000000000000000000000000000000081526004016108e890611244565b60405180910390fd5b60006001600084815260200190815260200160002090503373ffffffffffffffffffffffffffffffffffffffff168160020160009054906101000a900473ffffffffffffffffffffffffffffffffffffffff1673ffffffffffffffffffffffffffffffffffffffff16141561099b576040517f08c379a0000000000000000000000000000000000000000000000000000000008152600401610992906112a4565b60405180910390fd5b6000803373ffffffffffffffffffffffffffffffffffffffff1673ffffffffffffffffffffffffffffffffffffffff168152602001908152602001600020600101600084815260200190815260200160002060009054906101000a900460ff16610a3a576040517f08c379a0000000000000000000000000000000000000000000000000000000008152600401610a3190611224565b60405180910390fd5b8060070160003373ffffffffffffffffffffffffffffffffffffffff1673ffffffffffffffffffffffffffffffffffffffff16815260200190815260200160002060009054906101000a900460ff1615610ac9576040517f08c379a0000000000000000000000000000000000000000000000000000000008152600401610ac090611284565b60405180910390fd5b8115610ae8578060050160008154809291906001019190505550610afd565b80600601600081548092919060010191905055505b60018160070160003373ffffffffffffffffffffffffffffffffffffffff1673ffffffffffffffffffffffffffffffffffffffff16815260200190815260200160002060006101000a81548160ff021916908315150217905550505050565b610b64610d52565b60008210158015610b76575060025482105b610bb5576040517f08c379a0000000000000000000000000000000000000000000000000000000008152600401610bac90611244565b60405180910390fd5b60006001600084815260200190815260200160002090506040518060a0016040528082600001548152602001826003018054600181600116156101000203166002900480601f016020809104026020016040519081016040528092919081815260200182805460018160011615610100020316600290048015610c795780601f10610c4e57610100808354040283529160200191610c79565b820191906000526020600020905b815481529060010190602001808311610c5c57829003601f168201915b5050505050815260200182600401548152602001826005015481526020018260060154815250915050919050565b60006060829050600081511415610cc4576000801b915050610ccd565b60208301519150505b919050565b828054600181600116156101000203166002900490600052602060002090601f016020900481019282601f10610d1357805160ff1916838001178555610d41565b82800160010185558215610d41579182015b82811115610d40578251825591602001919060010190610d25565b5b509050610d4e9190610d81565b5090565b6040518060a0016040528060008152602001606081526020016000815260200160008152602001600081525090565b610da391905b80821115610d9f576000816000905550600101610d87565b5090565b90565b600081359050610db5816113fb565b92915050565b600082601f830112610dcc57600080fd5b8135610ddf610dda8261132e565b611301565b91508082526020830160208301858383011115610dfb57600080fd5b610e068382846113a8565b50505092915050565b600081359050610e1e81611412565b92915050565b600080600060608486031215610e3957600080fd5b600084013567ffffffffffffffff811115610e5357600080fd5b610e5f86828701610dbb565b935050602084013567ffffffffffffffff811115610e7c57600080fd5b610e8886828701610dbb565b9250506040610e9986828701610e0f565b9150509250925092565b60008060408385031215610eb657600080fd5b600083013567ffffffffffffffff811115610ed057600080fd5b610edc85828601610dbb565b9250506020610eed85828601610e0f565b9150509250929050565b600060208284031215610f0957600080fd5b6000610f1784828501610e0f565b91505092915050565b60008060408385031215610f3357600080fd5b6000610f4185828601610e0f565b9250506020610f5285828601610da6565b9150509250929050565b6000610f6782611365565b610f718185611381565b9350610f818185602086016113b7565b610f8a816113ea565b840191505092915050565b6000610fa08261135a565b610faa8185611370565b9350610fba8185602086016113b7565b610fc3816113ea565b840191505092915050565b6000610fdb600483611381565b91507f45303033000000000000000000000000000000000000000000000000000000006000830152602082019050919050565b600061101b600483611381565b91507f45303034000000000000000000000000000000000000000000000000000000006000830152602082019050919050565b600061105b600483611381565b91507f45303031000000000000000000000000000000000000000000000000000000006000830152602082019050919050565b600061109b600483611381565b91507f45303032000000000000000000000000000000000000000000000000000000006000830152602082019050919050565b60006110db600483611381565b91507f45303035000000000000000000000000000000000000000000000000000000006000830152602082019050919050565b600061111b600483611381565b91507f45303036000000000000000000000000000000000000000000000000000000006000830152602082019050919050565b600060a08301600083015161116660008601826111c4565b506020830151848203602086015261117e8282610f95565b915050604083015161119360408601826111c4565b5060608301516111a660608601826111c4565b5060808301516111b960808601826111c4565b508091505092915050565b6111cd8161139e565b82525050565b6111dc8161139e565b82525050565b600060208201905081810360008301526111fc8184610f5c565b905092915050565b6000602082019050818103600083015261121d81610fce565b9050919050565b6000602082019050818103600083015261123d8161100e565b9050919050565b6000602082019050818103600083015261125d8161104e565b9050919050565b6000602082019050818103600083015261127d8161108e565b9050919050565b6000602082019050818103600083015261129d816110ce565b9050919050565b600060208201905081810360008301526112bd8161110e565b9050919050565b600060208201905081810360008301526112de818461114e565b905092915050565b60006020820190506112fb60008301846111d3565b92915050565b6000604051905081810181811067ffffffffffffffff8211171561132457600080fd5b8060405250919050565b600067ffffffffffffffff82111561134557600080fd5b601f19601f8301169050602081019050919050565b600081519050919050565b600081519050919050565b600082825260208201905092915050565b600082825260208201905092915050565b60008115159050919050565b6000819050919050565b82818337600083830152505050565b60005b838110156113d55780820151818401526020810190506113ba565b838111156113e4576000848401525b50505050565b6000601f19601f8301169050919050565b61140481611392565b811461140f57600080fd5b50565b61141b8161139e565b811461142657600080fd5b5056fea365627a7a72315820b95cffb1ab01e040a1b65386bc7a72e359114da55347842dc335c85deb46affb6c6578706572696d656e74616cf564736f6c63430005100040",
  "source": "pragma solidity >=0.5.0 <0.8.0;\r\npragma experimental ABIEncoderV2;\r\n\r\ncontract MyBlock {\r\n    struct Post {\r\n        uint256 id;\r\n        string ipfsHash;\r\n        address payable owner;\r\n        string description;\r\n        uint256 fee;\r\n        uint256 likes;\r\n        uint256 dislikes;\r\n        mapping(address => bool) rated;\r\n    }\r\n\r\n    struct PostDetails {\r\n        uint256 id;\r\n        string description;\r\n        uint256 fee;\r\n        uint256 likes;\r\n        uint256 dislikes;\r\n    }\r\n\r\n    struct Profile {\r\n        uint256[] posted;\r\n        mapping(uint256 => bool) purchased;\r\n    }\r\n\r\n    mapping(address => Profile) private users;\r\n    mapping(uint256 => Post) private posts;\r\n    uint256 public n_posts;\r\n\r\n    constructor() public {\r\n        n_posts = 1;\r\n    }\r\n\r\n    /**\r\n     * @dev push a post to MyBlock\r\n     * @param _ipfsHash - hash reference of image\r\n     * @param _description - string description of post\r\n     * @param _fee - int cost to access post\r\n     */\r\n    function pushPost(\r\n        string memory _ipfsHash,\r\n        string memory _description,\r\n        uint256 _fee\r\n    ) public {\r\n        Post storage newPost = posts[n_posts];\r\n        newPost.id = n_posts;\r\n        newPost.ipfsHash = _ipfsHash;\r\n        newPost.owner = msg.sender;\r\n        newPost.description = _description;\r\n        newPost.fee = _fee;\r\n        newPost.likes = 0;\r\n        newPost.dislikes = 0;\r\n\r\n        users[msg.sender].posted.push(newPost.id);\r\n        n_posts++;\r\n    }\r\n\r\n    /**\r\n        E001 - Invalid post id\r\n        E002 - Already owns post\r\n        E003 - Minnium fee required\r\n        E004 - Do not own post\r\n        E005 - Post already rated\r\n        E006 - Owner cannot vote their post\r\n     */\r\n\r\n    /**\r\n     * @dev buy a post and pay owner\r\n     * @param postID - ID of post to buy\r\n     */\r\n    function buyPost(uint256 postID) public payable {\r\n        require(postID > 0 && postID < n_posts, \"E001\");\r\n\r\n        Post storage p = posts[postID];\r\n        require(\r\n            !(users[msg.sender].purchased[postID] || msg.sender == p.owner),\r\n            \"E002\"\r\n        );\r\n\r\n        require(msg.value >= p.fee, \"E003\");\r\n        p.owner.transfer(msg.value);\r\n        users[msg.sender].purchased[postID] = true;\r\n    }\r\n\r\n    /**\r\n     * @dev view a post\r\n     * @param postID - ID of post to view\r\n     * @return string - hash of post\r\n     */\r\n    function viewPost(uint256 postID) public view returns (string memory) {\r\n        require(postID > 0 && postID < n_posts, \"E001\");\r\n\r\n        Post storage p = posts[postID];\r\n        require(\r\n            users[msg.sender].purchased[postID] || msg.sender == p.owner,\r\n            \"E004\"\r\n        );\r\n\r\n        return p.ipfsHash;\r\n    }\r\n\r\n    /**\r\n     * @dev rate a post positively or negatively\r\n     * @param postID - ID of post to like or dislike\r\n     * @param like - determines if post is to be rated or disrated\r\n     */\r\n    function ratePost(uint256 postID, bool like) public {\r\n        require(postID >= 0 && postID < n_posts, \"E001\");\r\n        Post storage p = posts[postID];\r\n        require(p.owner != msg.sender, \"E006\");\r\n        require(users[msg.sender].purchased[postID], \"E004\");\r\n        require(!p.rated[msg.sender], \"E005\");\r\n        if (like) {\r\n            p.likes++;\r\n        } else {\r\n            p.dislikes++;\r\n        }\r\n        p.rated[msg.sender] = true;\r\n    }\r\n\r\n    /**\r\n     * @dev return details of a post\r\n     * @param postID - ID of post for which details are returned\r\n     * @return PostDetails */\r\n    function getPostDetails(uint256 postID)\r\n        public\r\n        view\r\n        returns (PostDetails memory)\r\n    {\r\n        require(postID >= 0 && postID < n_posts, \"E001\");\r\n        Post storage p = posts[postID];\r\n\r\n        return\r\n            PostDetails({\r\n                id: p.id,\r\n                description: p.description,\r\n                fee: p.fee,\r\n                likes: p.likes,\r\n                dislikes: p.dislikes\r\n            });\r\n    }\r\n\r\n    /**\r\n     * @dev searches for post based on description\r\n     * @param _search - description to search for\r\n     */\r\n    function searchPost(string memory _search, uint256 start)\r\n        public\r\n        view\r\n        returns (uint256)\r\n    {\r\n        bytes32 search = stringToBytes32(_search);\r\n\r\n        while (start < n_posts) {\r\n            if (stringToBytes32(posts[start].description) == search) {\r\n                return (posts[start].id);\r\n            }\r\n            start++;\r\n        }\r\n        return 0;\r\n    }\r\n\r\n    /**\r\n     * @dev utility method to conver string to bytes32\r\n     * @param source string to convert\r\n     * @return result\r\n     * Notes:\r\n     *      source - https://ethereum.stackexchange.com/questions/9142/how-to-convert-a-string-to-bytes32\r\n     */\r\n    function stringToBytes32(string memory source)\r\n        private\r\n        pure\r\n        returns (bytes32 result)\r\n    {\r\n        bytes memory tempEmptyStringTest = bytes(source);\r\n        if (tempEmptyStringTest.length == 0) {\r\n            return 0x0;\r\n        }\r\n\r\n        assembly {\r\n            result := mload(add(source, 32))\r\n        }\r\n    }\r\n}\r\n",
  "sourcePath": "D:/Junior Fall/Blockchain/FinalProject/BlockChain-FinalProject/myBlock/contracts/MyBlock.sol",
  "compiler": {
    "name": "solc",
    "version": "0.5.16+commit.9c3226ce.Emscripten.clang"
  },
  "schemaVersion": "3.3.1",
  "updatedAt": "2020-11-19T15:18:17.491Z",
  "networkType": "ethereum",
  "devdoc": {
    "methods": {
      "buyPost(uint256)": {
        "details": "buy a post and pay owner",
        "params": {
          "postID": "- ID of post to buy"
        }
      },
      "getPostDetails(uint256)": {
        "details": "return details of a post",
        "params": {
          "postID": "- ID of post for which details are returned"
        },
        "return": "PostDetails "
      },
      "pushPost(string,string,uint256)": {
        "details": "push a post to MyBlock",
        "params": {
          "_description": "- string description of post",
          "_fee": "- int cost to access post",
          "_ipfsHash": "- hash reference of image"
        }
      },
      "ratePost(uint256,bool)": {
        "details": "rate a post positively or negatively",
        "params": {
          "like": "- determines if post is to be rated or disrated",
          "postID": "- ID of post to like or dislike"
        }
      },
      "searchPost(string,uint256)": {
        "details": "searches for post based on description",
        "params": {
          "_search": "- description to search for"
        }
      },
      "viewPost(uint256)": {
        "details": "view a post",
        "params": {
          "postID": "- ID of post to view"
        },
        "return": "string - hash of post"
      }
    }
  },
  "userdoc": {
    "methods": {}
  }
}